:020000040800F2
:10000000F0150020650100089939000851350008F5
:1000100000000000000000000000000000000000E0
:100020000000000000000000000000009F390008F0
:1000300000000000000000009D390008A139000800
:100040007701000800000000770100087701000830
:1000500077010008770100087701000877010008A0
:1000600000000000D9060008E90600087701000832
:10007000D5030008213A0008313A000800000000CA
:100080007701000800000000000000007701000870
:1000900000000000770100087701000877010008E0
:1000A0007701000877010008770100081144000873
:1000B00077010008000000000000000000000000C0
:1000C00000F002F800F03EF80CA030C80838241800
:1000D0002D18A246671EAB4654465D46AC4201D180
:1000E00000F030F87E460F3E0FCCB6460126334274
:1000F00000D0FB1AA246AB4633431847BC4500006C
:10010000DC450000103A02D378C878C1FAD852070B
:1001100001D330C830C101D504680C6070470000BD
:100120000023002400250026103A01D378C1FBD813
:10013000520700D330C100D50B6070471FB51FBDFB
:1001400010B510BD00F013F91146FFF7F7FF04F0EA
:1001500035FA00F02BF903B4FFF7F2FF03BC00F00F
:1001600031F900000748804707480047FEE7FEE7EF
:10017000FEE7FEE7FEE7FEE704480549054A064BB1
:10018000704700001F3A0008C1000008F009002075
:10019000F0150020F00D0020F00D002001E004C05B
:1001A000091F0429FBD28B0701D50280801CC907D7
:1001B00000D00270704700290BD0C30702D0027034
:1001C000401C491E022904D3830702D50280801CEB
:1001D000891EE3E70022EEE70022DFE70378C2781A
:1001E0001946437812061B0219438378C0781B0412
:1001F000194311430902090A000608437047020A1D
:1002000008704A70020C8A70020ECA707047002291
:1002100003098B422CD3030A8B4211D300239C4643
:100220004EE003460B433CD4002243088B4231D3BB
:1002300003098B421CD3030A8B4201D394463FE04F
:10024000C3098B4201D3CB01C01A524183098B42AF
:1002500001D38B01C01A524143098B4201D34B0198
:10026000C01A524103098B4201D30B01C01A5241FB
:10027000C3088B4201D3CB00C01A524183088B4282
:1002800001D38B00C01A524143088B4201D34B006B
:10029000C01A5241411A00D20146524110467047DD
:1002A0005DE0CA0F00D04942031000D340425340E2
:1002B00000229C4603098B422DD3030A8B4212D3A2
:1002C000FC22890112BA030A8B420CD389019211D4
:1002D0008B4208D3890192118B4204D389013AD011
:1002E000921100E08909C3098B4201D3CB01C01AE6
:1002F000524183098B4201D38B01C01A52414309F9
:100300008B4201D34B01C01A524103098B4201D3E6
:100310000B01C01A5241C3088B4201D3CB00C01A53
:10032000524183088B4201D38B00C01A5241D9D26B
:1003300043088B4201D34B00C01A5241411A00D2EC
:100340000146634652415B10104601D34042002BE8
:1003500000D54942704763465B1000D3404201B567
:100360000020C046C04602BD7047704770477546C2
:1003700000F024F8AE46050069465346C008C000A8
:10038000854618B020B5FFF7F7FE60BC0027490886
:10039000B6460026C0C5C0C5C0C5C0C5C0C5C0C51D
:1003A000C0C5C0C5403D49008D46704710B50446E4
:1003B000C046C0462046FFF7CEFE10BD004870473D
:1003C0008C09002001491820ABBEFEE72600020080
:1003D0007047000010B5024800F062FC10BD00003C
:1003E0003400002070B50546AC6AA06D502108406D
:1003F000002831D1A06D012149020843A065206881
:1004000003F0E1F8002823D0A07E002820D1206846
:1004100000680821084008281AD1206803F0CDF8A8
:1004200000280DD1206840680C218843216848606D
:10043000A06DFF210131884301210843A06507E039
:10044000A06D20210843A065E06D01210843E0650F
:10045000204600F015FC0CE0A06D1021084000289B
:1004600003D0204600F01BFC03E0206D416B2846C2
:10047000884770BD70B50546AC6AA06D4021084341
:10048000A065E06D04210843E065204600F007FC0C
:1004900070BD70B50446A56A284600F0FFFB70BD2C
:1004A00070B50446206803F06BF80646206803F038
:1004B0006DF8002837D0002E35D1206880680521DE
:1004C0000840012806D1206803F044F80320216881
:1004D000086009E0A06D10210843A065E06D0121CE
:1004E0000843E065012070BD01F090FA054614E074
:1004F00001F08CFA401B02280FD920688068C007E1
:10050000C00F002809D0A06D10210843A065E06D40
:1005100001210843E0650120E5E720688068C00705
:10052000C00F0028E4D10020DDE7000038B5044604
:1005300000200090206803F029F8002858D1206896
:1005400080682C490840002809D0A06D102108437C
:10055000A065E06D01210843E065012038BD2068F9
:1005600003F000F8244803F005F80121C90508400C
:1005700000280DD0214922480068FFF748FE401CA2
:10058000009002E00098401E009000980028F9D1E9
:10059000607E01282CD001F039FA05461FE0206862
:1005A00002F0F4FF002802D1206802F0DBFF01F026
:1005B0002DFA401B022812D920680068C007C00F1E
:1005C000012148404840002809D1A06D102108436E
:1005D000A065E06D01210843E0650120BEE72068C9
:1005E0000068C007C00F0121484048400028D6D00D
:1005F0000020B3E71700008008270140400D0300EA
:100600000C00002070B503460C4600210AE088006B
:10061000205A00044E00761C7600A65B30431E680C
:100620003060491C50088842F1D8D007C00F00281C
:1006300003D01D688800205A28801868006870BDA3
:10064000F0B504460B46002113E08800185C000654
:100650008F007F1CDF5D3F0438438F00BF1CDF5DD0
:100660003F0238438F00FF1CDF5D38432768386046
:10067000491C90088842E8D89007800F002827D0AE
:100680009007800F012803D18800185C2768387014
:100690009007800F022808D18800185C06028F009E
:1006A0007F1CDF5D3E4325682E809007800F032866
:1006B0000ED18800185C00028F007F1CDF5D38437C
:1006C000064625682E808800801C185C27683870D4
:1006D00020680068F0BD000010B5024800F02EFF51
:1006E00010BD0000C402002010B5034800F026FF32
:1006F000024800F023FF10BD2003002098000020D6
:1007000070B50446206C8008800009494018606478
:100710002178084608381421FFF779FD054604487A
:100720008030A064E906C90E01208840E06470BDF5
:100730000008024002799106890E4A1E9200064B7B
:10074000D2180265044A403242654A1E93079B0F45
:1007500001229A40826570470009024070B5856C9D
:10076000C46C6C60046D002C02D0456D846D6C60AF
:100770000C4C64681C26056C35400126AE403443A1
:10078000084D6C60046863608468102C04D10468B0
:10079000A2600468E16003E00468A1600468E260AC
:1007A00070BD00000000024072B600BFFEE700000E
:1007B000FEB5044600200190002600BF5420005DD5
:1007C000012801D10220FEBD01215420015500BFA6
:1007D0002046FFF765FE0290206802F0DFFE002849
:1007E00073D1A06DFF210131884302210843A06528
:1007F0002068C0684449084000902068C068C94328
:1008000008402168C860002528E0206881683F4AC8
:10081000114012078918816000BF13E00198401C45
:1008200001903B49019888420CD3A06D0221884376
:1008300010210843A06500BF00215420015500BFCE
:100840000120C0E720688168C90F0029E6D120682F
:10085000B42109584906490E8E196D1C082DD4D3B0
:1008600029463046FFF7D3FC064620688168274AB0
:100870001140491C816000BF31462068B4221258E3
:10088000D209D2010A43B4231A5000BF20688168FC
:100890001E4A1140891C816000BF01F0B7F807466D
:1008A00014E001F0B3F8C01B02280FD9206802F051
:1008B00075FE00280AD0A06D10210843A065E06DE8
:1008C00001210843E06501207DE711E0206802F086
:1008D00065FE0028E5D12068C068009908432168BA
:1008E000C860A06D0221884301210843A06503E090
:1008F000A06D10210843A06500BF002154200155C0
:1009000000BF02985FE7000003800000E8FFFF7F60
:1009100000F202007047704770477047F0B585B02D
:1009200005460C460020039002900121C907286962
:10093000884203D0091D2869884200D100E000BF29
:1009400000BF5420405D012802D1022005B0F0BD57
:1009500001215420415500BF286802F02EFE0028D6
:1009600076D16068022874D00121C90728698842BD
:1009700003D0091D2869884208D128682168826A45
:100980004B035B0B1A43826200BFC6E02179CA06A3
:10099000D20E0F219140286E884321684903490BEC
:1009A000002905D11F22920621681140890E92E08C
:1009B0002178C907C90F002901D000218BE002224C
:1009C00021681140022901D1012184E0042221681B
:1009D0001140042901D102217DE008222168114043
:1009E000082901D1032176E0102221681140102945
:1009F00001D104216FE0202221681140202901D17A
:100A0000052168E0402221681140402901D10621DA
:100A100061E0802221681140802901D107215AE03C
:100A2000FF22013221681140914201D1082152E098
:100A30000122520221681140914201D109214AE06C
:100A40000122920221681140914203D10A2142E021
:100A5000FAE0BAE00122D20221681140914201D1AC
:100A60000B2138E00122120321681140914201D18B
:100A70000C2130E00122520321681140914201D142
:100A80000D2128E00122920321681140914201D1F9
:100A90000E2120E00122D20321681140914201D1B0
:100AA0000F2118E00122120421681140914201D166
:100AB000102110E00122520421681140914201D11D
:100AC000112108E00122920421681140914201D1D4
:100AD000122100E000212279D206D20E9140084373
:100AE000286660688008401CE969884215D8286833
:100AF000226861680192836ACF06FF0E0F22BA4016
:100B000093430F27BF06019A3A40920ECF06FF0E7D
:100B1000BA401343836200BF00BF28682168009178
:100B2000A16801914269009909028A4300990B0268
:100B30004C4F019939400B401A43426100BF206875
:100B4000C00FC007002821D0474802F013FD064619
:100B50004649206888421AD1C0023040002816D188
:100B6000C80230430146404802F040FD4049414838
:100B70000068FFF74CFB401C0C214843029002E048
:100B80000298401E029002980028F9D162E03A498A
:100B9000206888420AD180023040002806D18802AD
:100BA00030430146304802F021FD53E033492068CC
:100BB00088424FD14002304000284BD14802304398
:100BC0000146294802F012FD44E00121C9072869C5
:100BD000884203D0091D2869884208D12868216805
:100BE000826A4B035B0B9A43826200BF00BF20689E
:100BF000C00FC00700282DD01B4802F0BBFC0646E2
:100C00001A492068884207D1C20230469043014603
:100C1000154802F0EBFC1DE017492068884207D117
:100C200082023046904301460F4802F0DFFC11E09B
:100C30001249206888420DD1420230469043014655
:100C4000094802F0D3FC05E0A86D20210843A865FF
:100C50000120039000BF00215420415500BF03989C
:100C600074E6000000FFFF0708270140001000B0F5
:100C7000400D03000C000020004000B8002000B42C
:100C80000146002001E0421CD0B20428FBDB00201A
:100C900001E0421CD0B20228FBDB7047704770476E
:100CA000F8B50446002720680568206846680220D9
:100CB0002840022811D1304002280ED1A06D102109
:100CC0000840002803D1A06DC9010843A065204653
:100CD000FFF721FE02202168086004202840042834
:100CE00002D13040042806D00820284008283AD1F4
:100CF0003040082837D1A06D10210840002803D1CA
:100D0000A06D49010843A065206802F05CFC002842
:100D100023D0A07E002820D1206800680821084048
:100D200008281AD1206802F048FC00280DD120685C
:100D300040680C21884321684860A06DFF21013183
:100D4000884301210843A06507E0A06D20210843E6
:100D5000A065E06D01210843E0652046FFF790FFA4
:100D60000C20216808608020284080280DD1304068
:100D700080280AD1A06D012109040843A0652046FE
:100D800000F0AEF9802021680860FF200130284083
:100D9000FF21013188420DD1304088420AD1A06D37
:100DA00049020843A0652046FFF7B6FDFF20013049
:100DB0002168086001204002284001214902884240
:100DC0000DD1304088420AD1A06D49020843A06588
:100DD0002046FFF7A2FD0120400221680860102094
:100DE000284010281ED1304010281BD1206B00282D
:100DF00001D1012706E02068C1688907890F002911
:100E000000D00127012F0AD1A06DB9020843A065C7
:100E1000E06D02210843E0652046FFF740FF102007
:100E200021680860012040032840012149038842CD
:100E300009D13040884206D12046FFF76BFD0120E2
:100E4000400321680860F8BDFEB50446002002900A
:100E5000002500260190002C01D10120FEBD3C2080
:100E6000005D012800D100BF2069002805D00121C4
:100E700049052069884200D100BFA06D002807D134
:100E8000204600F02FF90020E06500215420015594
:100E9000206802F08BFB002817D120688168894AFE
:100EA0001140012212071143816000BF8649874823
:100EB0000068FFF7ACF9401C4000019002E0019887
:100EC000401E019001980028F9D1206802F06EFBC5
:100ED000002809D1A06D10210843A065E06D012113
:100EE0000843E06501200290206802F066FB074697
:100EF000A06D1021084000287ED1002FFCD1A06DEC
:100F00000901884302210843A065206802F03EFBE6
:100F1000002872D1217E8903A0680843617EC9033D
:100F20000843A17E49030843216B002902D0012117
:100F3000090300E000210843E16808432169C90F63
:100F4000C907002903D021694900490801E00121AE
:100F5000490508432C21095D490008430543202029
:100F6000005D01280ED1A07E002803D101200004DD
:100F7000054307E0A06D20210843A065E06D012135
:100F80000843E065606A002806D0FF21C131606A2D
:100F90000840A16A084305432068C0684C490840DE
:100FA00028432168C8606068800F8007E16C0843AF
:100FB00006433C20005D01280BD16068800F80074C
:100FC00001210843216C0843616C0843A16C08436C
:100FD0000643206800693F490840304321680861A2
:100FE000032189076068884216D0494260688842B8
:100FF00012D04900606801E05BE00DE088420BD050
:10100000354880680F21890488430F229204616863
:1010100011400843304988600021626B206802F06B
:10102000ECFA2E49A26B206802F0E7FA206900284A
:1010300007D12068806A0F21C9430843216888626C
:1010400011E001214905206988420CD1207F401E12
:101050004007C10E0F20C0438840216E084321681D
:10106000896A216888622168002000910099496995
:101070000422024007239340194004220240D14039
:10108000606B814208D10020E065A06D0221884399
:1010900001210843A06512E0A06D022188431021C0
:1010A0000843A065E06D01210843E065012002903E
:1010B00005E0A06D10210843A06501200290029870
:1010C000CCE60000E8FFFF7F400D03000C0000208D
:1010D0000102FEFF02FCFF1F0027014004FFFF0783
:1010E0007047000010B586B00446142101A8FFF730
:1010F00073F82B492068884250D100BF2948006806
:1011000001210905084327490860084600680121B4
:1011100009050840009000BF00BF00BF21484038CB
:10112000406B012108431F49403948630846406B22
:10113000C007C00F009000BF00BF3F2001900320F8
:1011400002900020039001A90520000700F062FB37
:101150001548164908600520486000211348816041
:10116000C1608021016149004161890081612021C4
:10117000C161C901016200F071FA002801D0FFF7D6
:1011800013FB00BF09482065846200BF002211469E
:101190000C2000F0CDFC0C2000F0B8FC06B010BD17
:1011A000002401404010024030000240980000201E
:1011B000F8B504460E461746206802F0FEF90028EE
:1011C00050D100BF5420005D012801D10220F8BD9C
:1011D00001215420015500BF2068C0680840002844
:1011E0000DD1206802F0D2F9002802D0206802F068
:1011F000B1F92068C068012108432168C860204611
:10120000FFF794F90546002D2DD1A06D1749084030
:10121000FF2101310843A0650020E0651448216DDD
:10122000C8621448216D08631348216D48631C206F
:101230002168086000BF00215420015500BF2068CC
:1012400040681021084321684860226811464031F7
:101250003B463246206D00F061FA0546206802F0F8
:10126000BDF900E002252846B1E70000FEF1FFFFCE
:10127000E5030008930400087504000870B50346F0
:101280000C4600201F2100BF0D46491E002D06D030
:10129000CE06F60E0125B5402540002DF4D0002ADB
:1012A00011D0082A0BD0102A05D0182A0CD10729F2
:1012B00000D301200AE0082900D3012006E010290C
:1012C00000D3012002E001E0012000BF00BF0028A0
:1012D00008D11D686C611D68AD681826B5431543BB
:1012E0001E68B56070BDF8B504460E46174600206E
:1012F00000900220607720688068012108432168FF
:101300008860206A012810D0022815D003281AD13D
:10131000002504E0A8003058216808606D1CBD421B
:10132000F8D32068006800900EE03A463146204627
:10133000FFF786F9009007E03A4631462046FFF76E
:1013400061F9009000E000BF00BF012060770098C5
:10135000F8BD000010B50446002C01D1012010BDDD
:10136000607F002803D12077204600F039F8022062
:1013700060772079002809D11848216848612068E1
:101380008068182188432168886008E02046E26868
:10139000A168FFF773FF002801D00120DFE7607923
:1013A000002803D1401E2168086102E021682069FD
:1013B000086120688068602188436169084321686A
:1013C00088602068806880218843A169084321687B
:1013D0008860012060770020C1E70000B71DC104CC
:1013E00008B5094A016891420DD100BF0749896BD0
:1013F00092141143054A91631146896B921411406E
:10140000009100BF00BF08BD003002400010024044
:101410000146002901D1012070472520405C0228A7
:1014200008D00420C86300BF00222420425400BF1B
:101430000120F1E7086800680E2290430A681060F6
:10144000486C0068FF22013290434A6C10600868C3
:101450000068400840000A681060124840681C2379
:101460000A6C1A400123934018430E4A50608A6C5C
:10147000C86C5060086D002809D0086D0068FF2214
:10148000013290430A6D10604A6D886D50600122F0
:101490002520425400BF00222420425400BF0020D7
:1014A000BAE700000000024070B504460025252080
:1014B000005D022803D00420E06301253AE02068A3
:1014C00000680E2188432168086020680068400891
:1014D000400021680860606C0068FF21013188438A
:1014E000616C0860144840681C22216C1140012284
:1014F0008A40104310494860A16CE06C4860206D40
:10150000002809D0206D0068FF2101318843216D3A
:101510000860616DA06D486001212520015500BF64
:1015200000212420015500BFA06B002802D02046D6
:10153000A16B8847284670BD0000024070B5044684
:1015400045480568206806681C20216C014004207D
:1015500088402840002820D00420304000281CD09B
:101560002068006820210840002805D12068006814
:101570000421884321680860374840681C22216C98
:10158000114004228A40104333494860206B0028F0
:1015900060D02046216B88475CE01C20216C014014
:1015A000022088402840002828D00220304000280F
:1015B00024D02068006820210840002808D1206835
:1015C00000680A218843216808600121252001550F
:1015D000214841681C22206C1040022282401143A5
:1015E0001D48416000BF00212420015500BFE06A72
:1015F00000282FD02046E16A88472BE01C20216C70
:101600000140082088402840002823D0082030408E
:1016100000281FD0206800680E21884321680860D8
:101620000D4841681C22206C104001228240114369
:10163000094841600120E06301212520015500BFD8
:1016400000212420015500BF606B002802D02046F5
:10165000616B884770BD00000000024010B5044671
:10166000002C01D1012010BD2A4A2168881A1421BA
:10167000FEF7CDFD80002064022125200155206861
:1016800000682549084021680860E168A0680843AF
:101690002169084361690843A1690843E169084376
:1016A000216A0843216809680843216808602046C8
:1016B000FFF726F801218903A068884201D10020A4
:1016C000606020798006800E616C0860A16CE06C1F
:1016D0004860606800280CD06068042809D820465B
:1016E000FFF728F80020216D0860616DA06D48604B
:1016F00003E0002020656065A0650020E063012113
:101700002520015500BF00212420015500BF0020E5
:10171000A9E70000080002400F80FFFFF8B504466B
:101720000D4616461F460020009000BF2420005D95
:10173000012801D10220F8BD01212420015500BF5C
:101740002520005D012844D10221252001550020DB
:10175000E0632068006840084000216808603B465C
:10176000324629462046FEF7F9FF206B002806D0B6
:10177000206800680E210843216808600BE020689B
:1017800000680421884321680860206800680A21F5
:10179000084321680860606C006801210904084062
:1017A000002805D0606C006809120843616C08606D
:1017B000206D002806D0206D0068FF21013108430C
:1017C000216D0860206800680121084321680860D5
:1017D00008E08020E06300BF00212420015500BF05
:1017E000012000900098A6E770B5044600F00EF9BD
:1017F00006462546681C002802D0054800782D18AA
:1018000000BF00F003F9801BA842FAD370BD0000AE
:101810000800002070B503460A460021D7E00126E3
:101820008E4014683440002C73D01579AD07AD0F8D
:10183000012D04D01579AD07AD0F022D18D1986890
:101840004E000325B5400646AE4330464E00D568EF
:10185000B54028439860586801258D400646AE4340
:1018600030461026556835402D098D402843586074
:101870001579AD07AD0F032D0BD0D8684E000325A9
:10188000B5400646AE4330464E009568B540284305
:10189000D8601579AD07AD0F022D15D1CD08AE007A
:1018A0001D462035A8594D07EE0E0F25B5400646BA
:1018B000AE4330464E07F60E1569B5402843CD08B5
:1018C000AD001E462036705118684E000325B54005
:1018D0000646AE4330461579AD07AD0F4E00B54014
:1018E000284318600326360455683540002D6DD016
:1018F0003A4D8E08B600A8598D07EE0E0F25B5405B
:101900000646AE43304605252D07AB4202D10025E1
:1019100010E05BE0324DAB4201D101250AE0314DD0
:10192000AB4201D1022505E02F4DAB4201D1032589
:1019300000E005258E07F60EB5402843274D8E089A
:10194000B600A851254D603D28680546A5432846A8
:101950000126360555683540002D02D00546254341
:1019600028461E4D603D286068680546A543284608
:101970000126760555683540002D02D005462543E1
:101980002846164D603D6860144D20356868054650
:10199000A54328460126760455683540002D02D01F
:1019A0000546254328460D4D2035686028680546C4
:1019B000A54328460126360455683540002D02D03F
:1019C000054625432846054D20352860491C1568E5
:1019D000CD40002D00D022E770BD0000601802400D
:1019E0000004005000080050000C005010B542697F
:1019F00013460B401B040C4694432343836110BDE4
:101A0000002A01D0816100E08162704701480068CE
:101A1000704700000000002003480068034909786F
:101A200040180149086070470000002008000020AD
:101A300010B5002408480068FF2101310843064919
:101A40000860032000F00AF8002801D0012401E01A
:101A500000F034F8204610BD00200240F8B50446DE
:101A600000251348007800281ED0114801787D20F9
:101A7000C000FEF7CCFB074639460E480068FEF76B
:101A8000C6FB064600F0D2FD00280BD1042C07D27D
:101A900000222146401E00F04BF80748046004E095
:101AA000012502E0012500E001252846F8BD0000DF
:101AB000080000200C0000200400002008B500BF32
:101AC00011480068012108430F4908600846006872
:101AD000C007C00F009000BF00BF00BF0A484038D9
:101AE000C06B8905084308494039C8630846C06B84
:101AF00009040840009000BF00BF082000F08EFDE0
:101B0000102000F08BFD08BD401002400146002966
:101B100009DB00BF00BFCB06DB0E01229A40034B5E
:101B20001A6000BF00BF00BF7047000000E100E086
:101B300070B504460D4616462946204602F0FCFCC8
:101B400070BD000070B504461148006803214902C9
:101B5000884320430E4908604815844216D10D4938
:101B600009680622514308460B49FEF750FB451C05
:101B700005E0002D01D06D1E01E0032070BD04487A
:101B800040690121890208408842F2D00020F5E72F
:101B9000007000400C00002040420F00FEB50446DB
:101BA0000027002002900121490420680840884253
:101BB0007BD1002001907048C06BC902084000280A
:101BC0000ED100BF6C48C06B08436B49C863084620
:101BD000C06B09040840009000BF00BF01200190C5
:101BE00066480068FF210131084364490860FFF737
:101BF0000DFF064606E0FFF709FF801B022801D90A
:101C0000032706E05D480068FF21013108400028F5
:101C1000F1D000BF002F4BD157484030C569032198
:101C200009020D40002D1AD06069A84217D0524811
:101C30004030C069884305464F484030C0690121A3
:101C4000090408434C494031C8610846C069012174
:101C50000904884348494031C8610846C561E8071E
:101C6000C00F002813D0FFF7D1FE064607E0FFF7AC
:101C7000CDFE801B4249884201D9032706E03E4839
:101C80004030C069022108400028F0D000BF002F7A
:101C90000CD139484030C069032109028843616989
:101CA000084335494031C86103E00DE0029700E088
:101CB00002970198012806D12F48C06B012109071E
:101CC00088432D49C86300BF2078C007C00F002893
:101CD00009D0294840304069800880006168084385
:101CE00025494031486120212068084020280AD138
:101CF000214840304069032109038843A168084313
:101D00001D4940314861012189032068084088420B
:101D100013D1194840304069800080082169084388
:101D200015494031486109062069884205D11248A9
:101D3000C068891308431049C8600121C90220689E
:101D40000840884215D10C4840304069032189037E
:101D50008843E1680843084940314861012189030B
:101D6000E068884205D10448C068890008430249F8
:101D7000C8600298FEBD00000010024000700040E4
:101D80008813000070B504460D46002C01D10120D7
:101D900070BD6B4800684007400FA84218D26848E1
:101DA0000068C008C000284365490860FFF72EFEA0
:101DB000064607E0FFF72AFE801B6249884201D9E8
:101DC0000320E5E75E4800684007400FA842F1D1D4
:101DD000022120680840022815D10421206808400B
:101DE000042807D158488068072109038843401810
:101DF00055498860544880680F2109028843A168CA
:101E00000843514988602078C007C00F002854D08B
:101E10006068012808D14C48006801214904084045
:101E200000282ED10120B3E76068022808D1464877
:101E30000068012149060840002822D10120A7E7B7
:101E40006068002808D140480068012189020840E4
:101E5000002816D101209BE76068032808D13A4882
:101E60004030006A0221084000280AD101208FE793
:101E700035484030C06902210840002801D10120C6
:101E800086E731488068C008C000616808432E4971
:101E90008860FFF7BBFD064607E0FFF7B7FD801B34
:101EA0002849884201D9032072E7274880683821F1
:101EB00008406168C9008842EFD1214800684007A6
:101EC000400FA84218D91E480068C008C000284327
:101ED0001B490860FFF79AFD064607E0FFF796FDED
:101EE000801B1849884201D9032051E71448006833
:101EF0004007400FA842F1D104212068084004287F
:101F000008D111488068072109038843E168084324
:101F10000D49886000F03AF80B4989680F221202D7
:101F20001140090A8900094A515CC906C90EC84016
:101F30000749086007480068FFF790FD28E70000A0
:101F4000002002408813000000100240584600089C
:101F50000C000020040000200148006870470000C9
:101F60000C00002000B5FFF7F7FF0649896807223B
:101F700012031140090B8900034A515CC906C90EBE
:101F8000C84000BD0010024098460008FEB5354824
:101F900080683821084000280DD1324800680902C5
:101FA0000840C10A0120884000902F480099FEF7A0
:101FB0002EF9044654E02B48806838210840082850
:101FC00001D12A4C4CE0274880683821084010286D
:101FD00034D12448C0688607B60F2248C0687021F3
:101FE00008400009401C0190022E0FD0032E0CD196
:101FF0001E480199FEF70BF91A49C9687F2212029F
:102000001140090A484305460DE000BF16480199F2
:10201000FEF7FDF81349C9687F2212021140090A30
:102020004843054600BF00BF0E48C068400F471C2C
:1020300039462846FEF7EBF8044611E00948806867
:1020400038210840202801D1840209E00548806831
:1020500038210840182802D17D24240200E0002401
:102060002046FEBD001002400024F40000127A0059
:10207000FEB50446002C01D10120FEBD2078C0072A
:10208000C00F00286FD0F748876838210F40C0681C
:102090008607B60F102F01D1032E01D0082F0BD1C8
:1020A000F048006801214904084000285BD06068BE
:1020B000002858D10120E0E700BF01210904606831
:1020C000884205D1E74800680843E649086021E0F6
:1020D00005210904606888420ED1E24800680121A8
:1020E00089040843DF4908600846006801210904A3
:1020F0000843DC4908600DE0DA4800680121090462
:102100008843D8490860084600680121890488434B
:10211000D449086000BF6068002812D0FFF776FC41
:10212000054606E0FFF772FC401B642801D9032036
:10213000A3E7CC4800680121490408400028F1D0F9
:1021400011E0FFF763FC054606E0FFF75FFC401B6C
:10215000642801D9032090E7C2480068012149049E
:1021600008400028F1D1022120680840022873D1DC
:10217000BC488068382108400746BA48C0688607CE
:10218000B60F102F01D1022E01D0002F36D1B54845
:102190000068012189020840002804D0E068002876
:1021A00001D1012069E7AF4840687F2109028843D7
:1021B000616909020843AB494860002F16D10846FF
:1021C00000680721C902884321690843A5490860BE
:1021D000084600680722D2021040C20A012090403F
:1021E0000146A148FEF713F8A0490860A04800681E
:1021F000FFF734FC002849D001203EE7E0680028C2
:102200002BD0984800680721C902884321690843F8
:102210009449086008460068891508439149086098
:10222000FFF7F4FB054606E0FFF7F0FB401B022832
:1022300001D9032021E78B48006801218902084069
:102240000028F1D0874840687F21090288436169EE
:10225000090208438349486018E082480068FF216A
:10226000013188437F490860FFF7D0FB054606E04F
:10227000FFF7CCFB401B022801D90320FDE679487B
:1022800000680121890208400028F1D10821206856
:102290000840082849D17348806838210840182828
:1022A0000BD170484030006A0221084000283CD021
:1022B000A069002839D10120DFE6A06900281AD0E2
:1022C00068484030006A012108436649403108628D
:1022D000FFF79CFB054606E0FFF798FB401B022832
:1022E00001D90320C9E65F484030006A0221084056
:1022F0000028F1D019E05B484030006A40084000F7
:10230000584940310862FFF781FB054606E0FFF7B8
:102310007DFB401B022801D90320AEE65148403026
:10232000006A022108400028F1D1042120680840F9
:1023300004287CD1002001904A4880683821084058
:1023400020280BD147484030C069022108400028AE
:102350006ED0A06800286BD101208EE64148C06B8A
:10236000010F01208843002810D000BF3D48C06BFA
:102370000121090708433B49C8630846C06B0904AB
:102380000840009000BF00BF01200190394800685C
:10239000FF2101310840002816D136480068084363
:1023A00034490860FFF732FB054606E0FFF72EFBD5
:1023B000401B022801D903205FE62E480068FF2158
:1023C000013108400028F1D000BFA068012808D1E1
:1023D00024484030C0690121084322494031C86186
:1023E00020E0A06805280FD11E484030C0690421B4
:1023F00008431C494031C8610846C06901210843AF
:1024000018494031C8610DE016484030C0694108A4
:10241000490014484030C161C06904218843114912
:102420004031C86100BFA068002816D001E040E03C
:102430003EE0FFF7EBFA054607E0FFF7E7FA401B3F
:102440000D49884201D9032017E606484030C0698B
:10245000022108400028F0D01EE0FFF7D7FA054619
:1024600014E00000001002400024F4000C000020E2
:10247000040000200070004088130000FFF7C6FA37
:10248000401B6249884201D90320F6E56048C069D3
:10249000022108400028F1D10198012808D15C48A8
:1024A0004038C06B01210907884359494039C86346
:1024B00000BFE06900285AD055484038806838216C
:1024C000084010287AD0E069022851D1504840389D
:1024D00000680121090688434D4940390860FFF72B
:1024E00095FA054606E0FFF791FA401B022801D94C
:1024F0000320C2E5464840380068012149060840EB
:102500000028F0D1616A206A0843A16A09020843E1
:10251000E16A0843216B08433D494039C9683D4A97
:10252000114008433A494039C86008460068012113
:10253000090608433649403908600846C06809045E
:10254000084333494039C860FFF760FA054606E0A2
:10255000FFF75CFA401B022801D903208DE52C48C7
:10256000403800680121490608400028F0D04AE0C0
:10257000274840380068012109068843244940392A
:102580000860FFF743FA054606E0FFF73FFA401BF5
:10259000022801D9032070E51D4840380068012158
:1025A000490608400028F0D119484038C0681A4947
:1025B000084017494039C86025E0FFE7E069012875
:1025C00000D15AE512484038C668B107890F206A21
:1025D000814216D170203040616A884211D17F203B
:1025E00000023040A16A090288420AD11F2040043B
:1025F0003040E16A884204D1710F4907206B814263
:1026000001D0012039E5002037E5000088130000E3
:10261000401002408C80C11FFCFFFEEF0249096898
:102620000143014A116070470000014070B5044643
:102630002546681E0949884201D901200CE0681E20
:10264000074948610321081F01F076FF0020044973
:10265000886107200861002070BD0000FFFFFF00B7
:1026600000E000E0704770477047000030B5024658
:102670000B4600BF3C20805C012801D1022030BD08
:1026800001253C20855400BF02253D20855410685B
:10269000416810688468164D1068A84206D10F255D
:1026A0002D050846A8430146586801437025084691
:1026B000A843014618680143106841600C4D10683A
:1026C000A84203D00B4D1068A84207D180252046B0
:1026D000A8430446986804431068846001253D209F
:1026E000855400BF00253C20855400BF0020C6E76C
:1026F000002C01400004004010B50446002C01D11C
:10270000012010BD3D20005D002805D100213C20A6
:102710000155204600F026F802213D200155211DDB
:10272000206801F08DF901214820015500BF3E20AD
:1027300001553F20015540200155412001554220BF
:1027400001554320015500BF00BF442001554520DD
:102750000155462001554720015500BF3D20015538
:102760000020CEE738B504461B49206888421ED1B8
:1027700000BF1A480068C914084318490860084691
:102780000068C9140840009000BF00BF0022114635
:102790000D20FFF7CDF90D20FFF7B8F90022114603
:1027A0000E20FFF7C5F90E20FFF7B0F913E00C4932
:1027B000206888420FD100BF08484038C06B022112
:1027C000084306494039C8630846C06B02210840E7
:1027D000009000BF00BF38BD002C014040100240F7
:1027E0000004004001463D20405C012801D001204A
:1027F000704702233D2043540F4B0868984203D092
:102800000E4B086898420FD1086882680C4B1A403A
:10281000062A0FD0D81F82420CD008680068012316
:1028200018430B68186005E0086800680123184326
:102830000B6818600020DBE7002C0140000400401A
:102840000700010001463D20405C012801D0012025
:10285000704702233D2043540868C0680123184391
:102860000B68D8600F4B0868984203D00E4B08687D
:1028700098420FD1086882680C4B1A40062A0FD084
:10288000D81F82420CD008680068012318430B68E7
:10289000186005E008680068012318430B68186099
:1028A0000020D5E7002C0140000400400700010093
:1028B000F8B504460D460020009000BF3C20005DA6
:1028C000012801D10220F8BD01213C20015500BFA3
:1028D00002213D200155206886683A480640FF21C4
:1028E00009023046884306462068866028685028DA
:1028F00034D00CDC202851D004DC00284CD0102827
:1029000052D14AE030284AD040284DD13AE06028E0
:102910002ED0702807D001210903401A02D0401A96
:1029200042D10DE043E0EB686A68A968206801F0D5
:10293000CFF820688668772006432068866036E0F6
:10294000EB686A68A968206801F0C2F820688068AE
:102950000121890308432168886028E0EA686968E2
:10296000206801F0CFF85021206801F0BFF81EE088
:10297000EA686968206801F0DEF86021206801F0EB
:10298000B5F814E0EA686968206801F0BBF84021F6
:10299000206801F0ABF80AE000BF00BF00BF296863
:1029A000206801F0A3F802E00120009000BF00BF02
:1029B00001213D20015500BF00213C20015500BFF1
:1029C000009880E788FFCEFF7047000010B50446EE
:1029D0002068006902210840400800281CD02068B7
:1029E000C06808404008002816D0481F21680861C8
:1029F00001202077206880698007800F002803D09D
:102A00002046FFF7E1FF05E0204600F0DBF8204616
:102A100000F0D9F8002020772068006904210840E0
:102A2000800800281DD02068C06808408008002861
:102A300017D0C84321680861022020772068806988
:102A4000032109020840002803D02046FFF7BCFFFD
:102A500005E0204600F0B6F8204600F0B4F800206B
:102A600020772068006908210840C00800281CD091
:102A70002068C0680840C008002816D0C8432168F4
:102A80000861042020772068C0698007800F002833
:102A900003D02046FFF798FF05E0204600F092F8AB
:102AA000204600F090F8002020772068006910216F
:102AB0000840000900281DD02068C06808400009AF
:102AC000002817D0C84321680861082020772068B3
:102AD000C069032109020840002803D02046FFF7FF
:102AE00073FF05E0204600F06DF8204600F06BF81B
:102AF0000020207720680069C007C00F01214840EE
:102B0000484000280CD02068C06808404840484031
:102B1000002805D0C81E21680861204600F054F83E
:102B20002068006980210840C00900280BD0206877
:102B3000C0680840C009002805D0C8432168086162
:102B40002046FFF790FD20680069FF210131084011
:102B5000000A00280CD02068C06880210840C00905
:102B6000002805D01648216808612046FFF77AFD45
:102B70002068006940210840800900280BD02068A7
:102B8000C06808408009002805D0C8432168086152
:102B9000204600F09DF82068006920210840400987
:102BA00000280BD02068C06808404009002805D0E4
:102BB000C843216808612046FFF756FD10BD00009C
:102BC000FFFEFFFF70477047F8B50746002410244A
:102BD0000C203749087011204870364800788870FA
:102BE000344881783248C1703248017930480171E7
:102BF000304881792E4841712E48007A2C498871DD
:102C00002C48817A2A48C1710830FDF7E7FA461C42
:102C1000274908313046FDF7F2FA032224492648B5
:102C2000FEF761FB064622490C31FDF7E8FA224621
:102C30001F49224800F024FC214801F00DFC054604
:102C4000002D2FDD1E48007872282BD11C484078BB
:102C5000652827D11A488078622823D11848C0787F
:102C60006F281FD1164800796F281BD1144840796E
:102C7000742817D100BF00BF00BF00BF00BFBFF363
:102C80004F8F00BF00BF00BF0E480F49C86000BF94
:102C900000BF00BFBFF34F8F00BF00BF00BF00BF2A
:102CA00000BFFDE70121C9030848FEF79FFEF8BDFC
:102CB0007C03002028000020F400002030020020C7
:102CC000B00100200400FA0500ED00E0000800500B
:102CD0007047014600BF8420405C012801D10220DA
:102CE000704701238420435400BF2423882043508D
:102CF0000868026808680068400840000B681860AF
:102D000001235B0710469843024600204866086886
:102D1000026020238820435000BF002384204354B6
:102D200000BF0020DCE77047704770B504460D46D1
:102D300000BF8420005D012801D1022070BD012167
:102D40008420015500BF2421882001512068066895
:102D5000206800684008400021680860206880689A
:102D6000072149068843284321688860204600F0EF
:102D7000FBFE2068066020218820015100BF002151
:102D80008420015500BF0020D8E770B504460D46E9
:102D900000BF8420005D012801D1022070BD012107
:102DA0008420015500BF2421882001512068066835
:102DB000206800684008400021680860206880683A
:102DC000C000C008284321688860204600F0CCFE7F
:102DD0002068066020218820015100BF0021842046
:102DE000015500BF0020D9E77047704770470000C9
:102DF000F0B585B004462068C5692068066820687B
:102E00008768FA48284003900398002814D12020AE
:102E10002840002810D020203040002804D1012074
:102E200000073840002807D0606F002802D02046F5
:102E3000616F884705B0F0BD039800287ED0EC484C
:102E40003840002803D1EB4830400028F6D0E8078E
:102E5000C00F00280DD0FF2001303040002808D0DE
:102E60000120216808629020005901210843902127
:102E700008510220284000280CD0F807C00F002875
:102E800008D00220216808629020005904210843DC
:102E9000902108510420284000280CD0F807C00FCA
:102EA000002808D0042021680862902000590221DF
:102EB00008439021085108202840002810D02020E5
:102EC0003040002803D1CA483840002808D00820E4
:102ED0002168086290200059082108439021085178
:102EE0000120C002284000280ED00120800630407A
:102EF000002809D00120C0022168086290200059F2
:102F000020210843902108519020005900285ED0CC
:102F10002020284000280ED020203040002804D156
:102F2000012000073840002805D0606F002802D03B
:102F30002046616F88479020005900E048E00290E9
:102F40002068806840210840402804D02821029849
:102F50000840002835D0204600F0DCFF206880685B
:102F600040210840402828D100BF01F021FB0190FA
:102F7000012001F020FB20688068402188432168FF
:102F80008860019801F017FB00BF802000590028DD
:102F90000FD0994980200059816380210859FEF79C
:102FA00083FA002813D0802210591259916B884758
:102FB0000DE02046FFF71AFF09E02046FFF716FF55
:102FC00005E02046FFF712FF00219020015131E774
:102FD000E06E01287ED11020284000287AD01020F1
:102FE00030400028FAD010202168086220688068EC
:102FF00040210840402876D1802000590068406870
:1030000080B20190019800286CD05C20015B01988F
:10301000814267DD5E2101980853802000590068D5
:1030200000682021084000284DD100BF01F0C0FAFF
:103030000090012001F0BFFA20680068FF210131F3
:10304000884321680860009801F0B5FA00BF00BF0E
:1030500001F0AEFA0090012001F0ADFA206880681E
:103060004008400021688860009801F0A4FA00BF81
:1030700000BF01F09DFA0090012001F09CFA206849
:1030800080684021884321688860009801F093FAA5
:1030900000BF20218C2001510020E06600BF01F01C
:1030A00087FA0090012001F086FA2068006810215C
:1030B000884321680860009801F07DFA00BF8021F4
:1030C0000859FEF7A5F9022020675C20025B5E200C
:1030D000005B02E057E006E004E0101A81B22046EF
:1030E000FFF721FEA6E65C20015B5E20005B081A6C
:1030F00080B201905E20005B002843D00198002838
:1031000040D000BF01F054FA0090012001F053FAC2
:1031100020680068FF2121318843216808600098F9
:1031200001F049FA00BF00BF01F042FA009001200F
:1031300001F041FA206880682D49C94308402168A0
:103140008860009801F037FA00BF20218C200151DF
:103150000020E066606700BF01F02AFA00900120BD
:1031600001F029FA2068006810218843216808606E
:10317000009801F020FA00BF022020672046019944
:10318000FFF7D1FD56E601200005284000280CD0AD
:10319000012080053840002807D001200005216863
:1031A00008622046FFF721FE44E6802028400028E0
:1031B0000FD080203040002804D10120C0053840C5
:1031C000002806D0A06F002802D02046A16F8847B3
:1031D00030E640202840002810D040203040002811
:1031E0000CD0204600F0D8FE24E600000F080000B6
:1031F00001000010200100043D3D00080120C00531
:103200002840002808D0012080073040002803D043
:103210002046FFF7E9FD0DE60120000628400028C2
:1032200007D0F00FC007002803D02046FFF77CFD31
:1032300000E600BFFEE510B50446002C01D10120D8
:1032400010BDA069002800D000E000BF8820005910
:10325000002805D1002184200155204600F02CF8DB
:10326000242188200151206800684008400021681E
:103270000860204600F0D6FE012800D1E0E7A06AF1
:10328000002802D0204600F0A3FC206840680921F5
:10329000C902884321684860206880682A218843E1
:1032A000216888602068006801210843216808605F
:1032B000204600F005FDC3E710B58CB0044614218C
:1032C00007A8FCF789FF182101A8FCF785FF4249F0
:1032D000206888427DD1012001900020029001A841
:1032E000FEF75CFC002801D0FDF75EFA00BF3B480A
:1032F00000680121890308433849086008460068CE
:10330000012189030840009000BF00BF00BF33487F
:103310004038406B01210843304940394863084632
:10332000406BC007C00F009000BF00BF03204002E9
:10333000079002200890002009900A9001200B902D
:1033400007A905200007FEF765FA2548254908600A
:1033500032204860002123488160C16080210161E2
:103360000021416181612021C16100210162FEF7DC
:1033700075F9002801D0FDF717FA00BF1949802020
:1033800001510846846200BF154814301649086090
:10339000332048601021144881600021C1608021E1
:1033A0000161002141618161C1610162FEF756F94D
:1033B000002801D0FDF7F8F900BF0B48E0678462F0
:1033C00000BF002211461B20FEF7B2FB1B20FEF7B8
:1033D0009DFB0CB010BD00000038014040100240C1
:1033E00008000240C402002020030020F8B5044673
:1033F0000D4616468C200059202834D1002D01D0CE
:10340000002E01D10120F8BD01210903A0688842E6
:1034100008D12069002805D1E807C00F002801D095
:103420000120F0E70020E066206840680121C9051E
:103430000840002811D000BF01F0BAF8074601206B
:1034400001F0B9F820680068012189060843216865
:103450000860384601F0AFF800BF324629462046E2
:1034600000F0D2FECFE70220CDE7000002498842FB
:1034700001D10968C9697047300200207047000017
:10348000F8B504460E46154688200059202855D127
:10349000002E01D0002D01D10120F8BD012109032A
:1034A000A068884208D12069002805D1F007C00F24
:1034B000002801D00120F0E726655420055356204E
:1034C0000553002190200151212188200151E06FF6
:1034D00000281DD01A48E16FC8621A48E16F0863DE
:1034E0001948E16F48630020E16F886323681A463A
:1034F00028322B46216DE06FFEF710F9002807D027
:103500001021902001512021882001510120C4E781
:1035100040202168086200BF01F04AF807460120F8
:1035200001F049F82068806880210843216888609C
:10353000384601F040F800BF0020AEE70220ACE7BB
:10354000A13E0008053F0008553D00087047704740
:1035500000BFFEE78168024A1140891C8160704704
:10356000E8FFFF7F8168024A1140491C8160704773
:10357000E8FFFF7F01460868072292051040704768
:10358000014688680222104040087047014688685A
:10359000C007C00F01225040504070470146886864
:1035A000C007C00F01225040504070470146886854
:1035B000012212071040000F70470146886804225C
:1035C0001040800870470146C868032292021040EC
:1035D000002801D1012070470020FCE78168024AE1
:1035E0001140091D81607047E8FFFF7F02680723D3
:1035F0009B059A430A430260704730B5436904242F
:103600000D4625400724AC40A34304240C40154636
:10361000A5402B43436130BD0EB5002000900190C2
:1036200002903E483E4908604005486000213C4801
:103630008160C160012149050161042141610021CE
:103640000176417681760621C1610021001D017756
:1036500013218901001F4162012189028162012138
:103660002430017200212438016303214163816306
:103670000021243001762438C164FDF7E5FB0028E1
:1036800001D0FDF791F801200090002001900290F8
:1036900069462348FDF742F9002801D0FDF784F878
:1036A000204800900420019069461D48FDF736F936
:1036B000002801D0FDF778F81B4800900820019001
:1036C00069461748FDF72AF9002801D0FDF76CF884
:1036D000164800900C20019069461148FDF71EF92C
:1036E000002801D0FDF760F81148009010200190EB
:1036F00069460B48FDF712F9002801D0FDF754F890
:103700000C4800901420019069460548FDF706F921
:10371000002801D0FDF748F80EBD0000002401404C
:103720003400002002000004040000080800000C1F
:10373000100000102000001410B50A480A49086063
:103740000020087100210848417141618161012018
:10375000054908620846FDF7FDFD002801D0FDF788
:1037600023F810BD00300240F400002008B500BF6F
:103770000E48806B012108430C4988630846806B22
:10378000C007C00F009000BF00BF002211460920F3
:10379000FEF7CEF90920FEF7B9F9002211460A20FA
:1037A000FEF7C6F90A20FEF7B1F908BD0010024085
:1037B00000B587B0142102A8FCF70EFD00BF174822
:1037C000406B04210843154948630846406B0421B7
:1037D0000840019000BF00BF00BF1048406B0121AE
:1037E00008430E4948630846406BC007C00F01906C
:1037F00000BF00BF00220121C9030948FEF700F9FC
:103800000120C00302900120039000200490059045
:1038100002A90348FDF7FEFF07B000BD00100240FB
:103820000008005000B587B0002003900490059078
:1038300006900090019002901648174908601748BA
:1038400048600021144881601549C1600021016170
:10385000416180218161FEF74FFF002801D0FCF714
:10386000A3FF01200003039003A90B48FFF720F8F2
:10387000002801D0FCF798FF0020009001900290F2
:1038800069460548FEF7F2FE002801D0FCF78CFFE0
:1038900007B000BD002C014018010020FF180000F7
:1038A0000F27000000B587B000200390049005901A
:1038B000069000900190029016481749086017483A
:1038C00048600021144881601549C16000210161F0
:1038D00080218161FEF710FF002801D0FCF764FF12
:1038E00001200003039003A90B48FEF7E1FF002825
:1038F00001D0FCF759FF202000900020029069467B
:103900000548FEF7B3FE002801D0FCF74DFF07B0D5
:1039100000BD00000004004064010020FF1800000A
:103920008813000010B51A481A490860E1204002C7
:103930004860002117488160C16001610C2141612C
:1039400000218161C16101624162002011498862E8
:103950000846FFF770FC002801D0FCF725FF002186
:103960000C48FFF712FA002801D0FCF71DFF0021D8
:103970000848FFF7DAF9002801D0FCF715FF0548E1
:10398000FFF7A7F9002801D0FCF70EFF10BD0000DB
:10399000003801403002002000BFFEE7704770474A
:1039A00010B5FEF739F810BD00B591B0342104A868
:1039B000FCF712FC0020009001900290039001207F
:1039C0004002FEF7BFF802200490C00107900020DB
:1039D00008904020099002200B9002210C910021B8
:1039E0000D9108210E9101040F910107109104A877
:1039F000FEF73EFB002801D0FCF7D6FE0720009022
:103A00000220019000200290039002216846FEF7F8
:103A1000B9F9002801D0FCF7C7FE11B000BD70470E
:103A200010B50248FEF7D2FF10BD000018010020BB
:103A300010B50248FEF7CAFF10BD000018010020B3
:103A400010B502681D4B984202D01D4B984205D11B
:103A500070241346A3431A464B681A43174B9842E7
:103A60000BD0174B984208D0164B984205D0164BF6
:103A7000984202D0154B984206D1032424021346E3
:103A8000A3431A46CB681A4380241346A3434C69C8
:103A900023431A4602608B68C3620B688362074B3C
:103AA000984205D0084B984202D0084B984201D169
:103AB0000B6903630123436110BD0000002C01402A
:103AC0000004004000200040004401400048014044
:103AD00070B50C468168FF2636020D46B54329466F
:103AE0001D02154325432943816070BD0A46816844
:103AF000034B1940072313431943816070470000AB
:103B00008FFFCFFF70B50B461446026A056A6D0839
:103B10006D0005628169F0260D46B54329462501F1
:103B200029430A261546B5432A4615461D432A460B
:103B30008161026270BD70B50B461446056A10269D
:103B4000B54305628169026A0F2636030D46B54307
:103B5000294625032943A0261546B5432A461D01BB
:103B60002A438161026270BDF8B50446606E002888
:103B700005D101216A2001536820015322E0082762
:103B80000822009220688068072149060840450EF7
:103B900020688068460F0C4A915D0C4A935D009A3C
:103BA00053431846FCF73DFB81B26A200153064A95
:103BB000515D064A525D7A431046FCF732FB81B2F2
:103BC00068200153F8BD0000474600083F46000842
:103BD000018DC907C90F002908D001684968012271
:103BE00052049143C26A1143026851600222816A01
:103BF0001140022907D101684968D2039143026B41
:103C00001143026851600422816A1140042907D1DE
:103C10000168496812049143426B11430268516084
:103C20000822816A1140082907D1016849681203F6
:103C30009143826B1143026851601022816A1140E6
:103C4000102907D10168896812029143C26B1143A0
:103C5000026891602022816A1140202907D1016801
:103C6000896812029143026C1143026891604022FC
:103C7000816A1140402915D1016849689203914336
:103C8000426C11430268516001221205416C91425D
:103C900008D101684968032252059143826C11439F
:103CA000026851608022816A1140802907D1016831
:103CB000496812039143C26C114302685160704716
:103CC00038B50446002190200151FDF79FFE0546BE
:103CD000206800680821084008280BD116482B46A8
:103CE000002289040090204600F002FB002801D049
:103CF000032038BD206800680421084004280BD147
:103D00000D482B46002209050090204600F0F0FAED
:103D1000002801D00320ECE72021882001518C20CD
:103D200001510020E066206700BF0021842001557A
:103D300000BF0020DDE70000FFFFFF0170B5054672
:103D4000AC6A00215E200153562001532046FFF744
:103D50004DF870BDF8B50546AC6A882006598C2030
:103D600007592068806880210840802807D1212ECB
:103D700005D1002156200153204600F029F9206882
:103D8000806840210840402807D1222F05D100211A
:103D90005E200153204600F0BDF89020005910210C
:103DA0000843902108512046FFF720F8F8BD70B570
:103DB0000546AC6A286800682021084000284DD1DB
:103DC00000215E20015300BF00F0F2FB06460120F7
:103DD00000F0F1FB20680068FF2101318843216871
:103DE0000860304600F0E7FB00BF00BF00F0E0FBDA
:103DF0000646012000F0DFFB206880684008400094
:103E000021688860304600F0D6FB00BF00BF00F09C
:103E1000CFFB0646012000F0CEFB206880684021E1
:103E2000884321688860304600F0C5FB00BF202130
:103E30008C200151E06E012810D100BF00F0B8FBCA
:103E40000646012000F0B7FB206800681021884377
:103E500021680860304600F0AEFB00BF00202067FC
:103E6000E06E012805D15C20015B2046FEF75BFF78
:103E700002E02046FFF7FAFA70BD70B50546AC6A5D
:103E800001202067E06E012806D15C20005B41081C
:103E90002046FEF748FF02E02046FFF7EFFA70BD2C
:103EA00070B50546AC6A28680068202108400028E3
:103EB00024D100215620015300BF00F079FB0646B3
:103EC000012000F078FB2068806880218843216809
:103ED0008860304600F06FFB00BF00BF00F068FB59
:103EE0000646012000F067FB206800684021084377
:103EF00021680860304600F05EFB02E02046FFF7D4
:103F000025FB70BD70B50446A56A2846FFF71FFB68
:103F100070BD000070B5044600BF00F049FB0546C7
:103F2000012000F048FB20680068FF212131884310
:103F300021680860284600F03EFB00BF00BF00F08B
:103F400037FB0546012000F036FB206880681149E8
:103F5000084021688860284600F02DFB00BFE06E15
:103F6000012810D100BF00F023FB0546012000F01E
:103F700022FB2068006810218843216808602846D9
:103F800000F019FB00BF20218C2001510020E066C9
:103F9000606770BDFEFFFFEF70B5044600BF00F024
:103FA00007FB0546012000F006FB20680068402161
:103FB000884321680860284600F0FDFA00BF2021F0
:103FC000882001510020A0672046FFF7BFFA70BD8E
:103FD00070B5044600BF00F0EBFA0546012000F082
:103FE000EAFA20680068C0218843216808602846F2
:103FF00000F0E1FA00BF00BF00F0DAFA0546012048
:1040000000F0D9FA206880680121C9058843216839
:104010008860284600F0CFFA00BF20218820015197
:1040200070BD0000F0B585B0044600200190216904
:10403000A068084361690843E16908430390206868
:1040400000686949084003990843216808602068AE
:104050004068032109038843E168084321684860F8
:10406000A0690390206A0399084303902068806840
:104070005E49084003990843216888602068C06A47
:1040800000090001616A08432168C86200BF5849FD
:104090002068884217D1574840698007800F002860
:1040A00006D0012808D0022804D0032808D105E052
:1040B000002707E0022705E0042703E0082701E0C6
:1040C000102700BF06E04C492068884201D1002734
:1040D00000E0102700BF0121C903E069884241D1F7
:1040E000002F06D0022F08D0042F08D0082F0DD1A2
:1040F00009E0FDF737FF05460CE0404D0AE0FDF70B
:1041000045FF054606E00125ED0303E000250120FB
:10411000019000BF00BF002D5BD0606A4000384AAC
:10412000115A2846FCF773F84000616849084018A6
:1041300000906168FCF76BF80646102E0FD33148EB
:1041400086420CD82F480F38304002903007400F7D
:1041500002990843029002982168C86039E0012062
:10416000019036E0002F06D0022F08D0042F08D08F
:10417000082F0DD109E0FDF7F5FE05460CE01F4DB7
:104180000AE0FDF703FF054606E00125ED0303E025
:1041900000250120019000BF00BF002D19D0606AEA
:1041A0004000174A115A2846FCF731F8616849085F
:1041B000401800906168FCF72AF80646102E06D3D6
:1041C0001048864203D8B0B22168C86001E00120DF
:1041D000019001216A20015368200153002060678B
:1041E000A067019805B0F0BDF369FFCFFFF4FF11A0
:1041F0000038014040100240004400400024F40018
:1042000022460008FFFF0000F8B504460E4615469A
:10421000A6655C20055300219020015122218C20AD
:10422000015180200059002822D02E4980200059B9
:10423000C1622D498020005901632C49802000591A
:10424000416300218020005981632368194624318D
:10425000802318592B46A26DFDF760FA002807D07D
:1042600010219020015120218C2001510120F8BD06
:104270002069002811D000BF00F09AF907460120FC
:1042800000F099F920680068FF2101310843216896
:104290000860384600F08FF900BF00BF00F088F9D1
:1042A0000746012000F087F9206880680121084353
:1042B00021688860384600F07EF900BF00BF00F03A
:1042C00077F90746012000F076F9206880684021E0
:1042D000084321688860384600F06DF900BF00206F
:1042E000C5E70000AF3D00087B3E0008553D0008D3
:1042F000FFB581B004460D4617460A9E7BE0701C50
:10430000002878D0FDF782FB0499401AB04201D80A
:10431000002E2FD100BF00F04BF90090012000F0DB
:104320004AF920680068FF21A131884321680860AC
:10433000009800F040F900BF00BF00F039F900908C
:10434000012000F038F920688068400840002168AA
:104350008860009800F02FF900BF202188200151CB
:104360008C20015100BF00218420015500BF032093
:1043700005B0F0BD206800680421084000283AD04C
:104380002068C06949020840C00A002833D00846A6
:104390002168086200BF00F00BF90090012000F0D6
:1043A0000AF920680068FF21A1318843216808606C
:1043B000009800F000F900BF00BF00F0F9F800908D
:1043C000012000F0F8F8206880684008400021686B
:1043D0008860009800F0EFF800BF2021882001518C
:1043E0008C2001519020015100BF002184200155F3
:1043F00000BF0320BCE72068C0692840A84201D163
:10440000012000E00020B84200D178E70020AFE7AB
:1044100010B500F075F80248FEF7EAFC10BD000088
:104420003002002010B59420084908700122520281
:1044300007490848FEF7DAFF0648006800681021BF
:10444000084304490968086010BD00001C000020F2
:104450008C0300203002002070B50546002424485B
:10446000008801214902884202D1002020490880A9
:104470001FE0204820490988425C2046611C8CB21C
:104480002A5400201B491C4A128888541A48008864
:10449000401C1949088008460088012149028842C9
:1044A00002DB00201449088001204002844200DB26
:1044B00005E00F480088104909888842D9D100BF1B
:1044C0000E48006880684021084000280DD10B4844
:1044D0000068006810210843084909680860012243
:1044E000520204490548FEF781FF204670BD0000D6
:1044F000100000208C030020120000203002002059
:104500000B480068C06910210840000900280DD040
:104510001020074909680862054880300068006873
:10452000406801214902081A0249088070470000CA
:10453000300200201000002010B5002819DB1A4AB4
:1045400003231B02D21883089B00D2588307DC0E7A
:10455000FF23A3409A438B071B0E8407E40EA3405E
:104560001A43114B032424021B198408A4001A5176
:1045700018E00E4A03071B0F083B9B089B00D2580C
:104580008307DC0EFF23A3409A438B071B0E84078F
:10459000E40EA3401A43054B0407240F083CA4086B
:1045A000A4001A5110BD000000E100E01CED00E085
:1045B000EFF31080704780F310887047FDF738FAEA
:1045C000FFF7F2F9FFF7F4F8FFF7D0F8FFF724F858
:1045D000FFF7A8F9FFF766F9FFF7AEF8FFF722F942
:1045E000FFF720FF0948FCF7E3F86420FDF7FCF82B
:1045F000062207490548FCF7DBFD0648FEF7F2F8FE
:104600000548FEF71FF900BFFEE700003400002058
:10461000280000206401002018010020081C3044FC
:104620005800010002000400060008000A000C0007
:1046300010002000400080000001081C3044580198
:104640000101030701000008040204080101010040
:10465000081C30445800000000000000000000006A
:10466000000000000000000000000000000000004A
:104670000000000000000000010000000200000037
:104680000300000004000000060000000700000016
:104690000800000009000000000000000000000009
:1046A0000000000000000000010000000200000007
:1046B0000300000004000000D846000800000020AD
:1046C000280000000401000800470008280000201E
:1046D000C8150000200100080000000004000000D0
:1046E000010000000024F4000000000000000000B1
:1046F0000000000094000000000000000000000026
:04000005080000C12E
:00000001FF
